S01800004F70656E6D765F554152545F4F4D4E492E737265636A
S113000071C000008EC000008CC000008AC00000D7
S113001088C0000086C0000084C0000082C00000C8
S113002080C000007EC000007CC000007AC00000D8
S113003078C0000076C0000074C0000072C00000E8
S113004070C000006EC000006CC000006AC00000F8
S113005068C0000066C0000064C0000062C0000008
S113006060C000005EC000005CC000005AC0000018
S113007058C0000056C0000054C0000052C0000028
S113008050C000004EC000004CC000004AC0000038
S113009048C0000046C0000044C0000042C0000048
S11300A040C000003EC000003CC000003AC0000058
S11300B038C0000036C0000034C0000032C0000068
S11300C030C000002EC000002CC000002AC0000078
S11300D028C0000026C00000B4C0000022C00000F8
S11300E020C0000011241FBECFEFD1E2DEBFCDBF80
S11300F000E00CBF12E0A0E0B2E0EAE1F9E000E0C9
S11301000BBF02C007900D92A630B107D9F722E0C9
S1130110A6E0B2E001C01D92A432B207E1F7B3D168
S1130120FAC36ECF86E69EE00197F1F7000040988F
S1130130419880E388B9429AE6E6FEE03197F1F708
S113014000004298E6E6FEE03197F1F7000040989F
S1130150419888B9429AE6E6FEE03197F1F700004B
S11301604298E6E6FEE03197F1F7000040984198A6
S113017088B9429A86E69EE00197F1F7000042981A
S1130180E6E6FEE03197F1F700004098419880E2FE
S113019088B9429A86E69EE00197F1F700004298FA
S11301A00895982F907F98B940984198429AECEC22
S11301B0FCE13197F1F700C000004298F0E18F9F15
S11301C0C001112488B940984198429A8CEC9CE172
S11301D00197F1F700C0000042980895A3DF86E676
S11301E09EE00197F1F7000088E2DBDF81E0D9DFD0
S11301F086E0D7DF8EE0D5DF80E8D3CF0895813065
S113020019F0823029F008958FE7860FCACF089538
S11302108FEB860FC6CF089580E480937C0087E837
S113022080937A0010927B000895109235018FE537
S11302308093340188E98093310186E08093320110
S113024008951F920F920FB60F9211240BB60F92BE
S11302502F933F934F935F936F937F938F939F93CA
S1130260AF93BF93EF93FF9362E080E0C8DF809188
S1130270360190E090930D0280930C02FF91EF9170
S1130280BF91AF919F918F917F916F915F914F91AA
S11302903F912F910F900BBE0F900FBE0F901F90A8
S11302A018958FEF85B910929900109298001092CA
S11302B09B0010929A0010929D0010929C0082B1B3
S11302C08F6382B908954F925F926F927F928F925B
S11302D09F92AF92BF92CF92DF92EF92FF92CF9311
S11302E0DF9300D000D0CDB7DEB79E838D833B0172
S11302F05A01BC01990F880B990BC7D120910202B6
S11303003091030240910402509105024AD26B01DC
S11303107C01609306027093070280930802909315
S11303200902B501BB0C880B990BAFD14B015C01E1
S113033023EC35EF48EA5EE3C701B60132D26983A4
S11303407A838B839C832FE135E84BE25FE3C5011D
S1130350B40127D229813A814B815C81FFD062D1DB
S11303606B017C0170931F0260931E02B301770C32
S1130370880B990B8AD12B013C0123EC35EF48EA19
S11303805EE3C501B4010DD24B015C0121EE3AE7F5
S113039044E15FEBC301B20104D2A5019401DDD0B5
S11303A029813A814B815C81D9D03CD17093170269
S11303B06093160221EE3AE744E15FE3C301B20120
S11303C0F0D1A5019401C9D029813A814B815C8186
S11303D0C5D028D170931B0260931A02C6019923D9
S11303E024F4882799278C199D0990939900809368
S11303F09800809116029091170299231CF491950C
S11304008195910990939B0080939A0080911A02A0
S113041090911B0299231CF49195819591099093D5
S11304209D0080939C008D819E810197C49738F430
S1130430109A1198139A1298149A15980FC02D8136
S11304403E812C5C3F4F2433310538F4119A1098C7
S1130450139A1298149A159801C023DF26960FB6A2
S1130460F894DEBF0FBECDBFDF91CF91FF90EF9028
S1130470DF90CF90BF90AF909F908F907F906F90C0
S11304805F904F9008957894C7DEE0E9F0E08081B2
S1130490896A8083E1E9F0E08081886080838081DB
S11304A0846080838FEF84B981B98DB9109204017F
S11304B087B9BBDE93DE0F2EFAE6CF2ED12CE12CCA
S11304C0F12CF02DC8ECD0E020910C0230910D02FB
S11304D0C901330FAA0BBB0B9C01AD012556310991
S11304E041095109ABE6B0E0EAD1A7019601BCD1BC
S11304F089019A010553110921093109B801809133
S113050000029091010281309105E9F710930B02EA
S113051000930A02D0931102C093100210930F02A9
S113052000930E026633710539F446E350E0BE01D0
S113053086E390E0C8DEC8CF62E080E060DE4091F0
S11305400E0250910F02609110027091110280917D
S11305500A0290910B02B7DEB7CF5058BB27AA27E7
S11305600ED0E5C0D6D030F0DBD020F031F49F3F80
S113057011F41EF4CBC00EF4E095E7FBC1C0E92FE3
S1130580E7D080F3BA17620773078407950718F05A
S113059071F49EF5FFC00EF4E0950B2EBA2FA02D3A
S11305A00B01B90190010C01CA01A0011124FF271C
S11305B0591B99F0593F50F4503E68F11A16F04017
S11305C0A22F232F342F4427585FF3CF4695379516
S11305D02795A795F0405395C9F77EF41F16BA0BDB
S11305E0620B730B840BBAF09150A1F0FF0FBB1F89
S11305F0661F771F881FC2F70EC0BA0F621F731FD2
S1130600841F48F4879577956795B795F7959E3F2E
S113061008F0B3CF9395880F08F09927EE0F9795BC
S11306208795089504D06894B111B5C0089598D001
S113063088F09F5790F0B92F9927B751A0F0D1F0C7
S1130640660F771F881F991F1AF0BA95C9F712C051
S1130650B13081F09FD0B1E008959CC0672F782F0E
S11306608827B85F39F0B93FCCF3869577956795BD
S1130670B395D9F73EF490958095709561957F4F29
S11306808F4F9F4F0895E89409C097FB3EF49095CF
S11306908095709561957F4F8F4F9F4F9923A9F057
S11306A0F92F96E9BB279395F695879577956795E6
S11306B0B795F111F8CFFAF4BB0F11F460FF1BC02A
S11306C06F5F7F4F8F4F9F4F16C0882311F096E9BD
S11306D011C0772321F09EE8872F762F05C066236B
S11306E071F096E8862F70E060E02AF09A95660F24
S11306F0771F881FDAF7880F9695879597F90895DD
S113070097F99F6780E870E060E008959FEF80ECC0
S1130710089500240A941616170618060906089563
S113072000240A9412161306140605060895092EC9
S11307300394000C11F4882352F0BB0F40F4BF2B38
S113074011F460FF04C06F5F7F4F8F4F9F4F089578
S113075057FD9058440F551F59F05F3F71F047956E
S1130760880F97FB991F61F09F3F79F08795089553
S1130770121613061406551FF2CF4695F1DF08C072
S1130780161617061806991FF1CF8695710561058F
S113079008940895E894BB2766277727CB0197F937
S11307A008950BD0C4CFB5DF28F0BADF18F0952335
S11307B009F0A6CFABCF1124EECFCADFA0F3959FEB
S11307C0D1F3950F50E0551F629FF001729FBB2734
S11307D0F00DB11D639FAA27F00DB11DAA1F649FE0
S11307E06627B00DA11D661F829F2227B00DA11D93
S11307F0621F739FB00DA11D621F839FA00D611D19
S1130800221F749F3327A00D611D231F849F600D39
S1130810211D822F762F6A2F11249F5750408AF072
S1130820E1F088234AF0EE0FFF1FBB1F661F771FFE
S1130830881F91505040A9F79E3F510570F060CF3A
S1130840AACF5F3FECF3983EDCF3869577956795E6
S1130850B795F795E7959F5FC1F7FE2B880F911D1C
S11308609695879597F90895052E97FB16F40094AD
S11308700FD057FD05D02DD007FC02D046F408C098
S113088050954095309521953F4F4F4F5F4F0895B8
S113089090958095709561957F4F8F4F9F4F0895E8
S11308A0A29FB001B39FC001A39F700D811D1124AD
S11308B0911DB29F700D811D1124911D0895F0DFCB
S11308C0A59F900DB49F900DA49F800D911D1124A0
S11308D00895A1E21A2EAA1BBB1BFD010DC0AA1F7D
S11308E0BB1FEE1FFF1FA217B307E407F50720F095
S11308F0A21BB30BE40BF50B661F771F881F991F10
S11309001A9469F760957095809590959B01AC0158
S10D0910BD01CF010895F894FFCF54
S109091A01000000404052
S9030000FC
